S01700004763634170706C69636174696F6E312E737265635B
S11300000C943A000C944C000C944C000C944C004E
S11300100C944C000C944C000C944C000C944E002A
S11300200C944C000C944C000C944C000C944C001C
S11300300C944C000C944C000C944C000C944C000C
S11300400C945D000C944C000C944C000C944C00EB
S11300500C944C009F00BF00A100A300A500A700C2
S1130060A900AB00AD00AF00B100B300B500B7000C
S1130070B900BB0011241FBECFE5D8E0DEBFCDBF61
S113008020E0A0E6B0E001C01D92A236B207E1F77D
S11300900E94C1000C9406010C9400001F920F9260
S11300A00FB60F9211248F9386B1806486B98F9115
S11300B00F900FBE0F901F9018951F920F920FB6BE
S11300C00F9211242F933F936F937F938F939F935A
S11300D0AF93BF9324B135B1AFE2BAEB0E94F700FE
S11300E09695879596958795969587959DEC899F86
S11300F0912D1124969596959695392F330F232F8C
S1130100220F220F230F382F321B3093610090935C
S11301106000BF91AF919F918F917F916F913F91BB
S11301202F910F900FBE0F901F90189590E0803183
S1130130910518F5FC01E65DFF4F0C94F1008FE387
S113014008958BE508958FE4089586E608958DE675
S113015008958DE7089587E008958FE708958FE661
S1130160089587E708958CE7089589E308958EE557
S1130170089589E7089581E7089580E0089586E069
S1130180089578948FEF87BB83E081BB86B18F6835
S113019086B987B1806C87B98EB58A608EBD89B700
S11301A0806189BF89E698E19BBD8ABD8091610029
S11301B00E94960088BB81E082BB8FEC97E0019798
S11301C0F1F700C00000809160000E94960088BB97
S11301D082E082BB8FEC97E00197F1F700C000004A
S11301E0E5CFEE0FFF1F0590F491E02D0994A29F37
S11301F0B001B39FC001A39F700D811D1124911DF7
S1130200B29F700D811D1124911D0895F894FFCFA4
S9030000FC
