S01700004763634170706C69636174696F6E312E737265635B
S11300000C942A000C9434000C9434000C943400A6
S11300100C9434000C9434000C9434000C9434008C
S11300200C9434000C9434000C9434000C9434007C
S11300300C9434000C9434000C9434000C9434006C
S11300400C9434000C9434000C9434000C9434005C
S11300500C94340011241FBECFE5D8E0DEBFCDBF21
S11300600E9436000C944A000C94000087B381600F
S113007087BB88B38E7F88BB98B381E0892788BB10
S11300802FE986E891E0215080409040E1F700C0DC
S10B00900000F2CFF894FFCF49
S9030000FC
