S01700004763634170706C69636174696F6E312E737265635B
S11300000C943A000C944C000C944C000C944C004E
S11300100C944C000C944C000C944C000C944E002A
S11300200C944C000C944C000C944C000C944C001C
S11300300C944C000C944C000C944C000C944C000C
S11300400C944C000C944C000C944C000C944C00FC
S11300500C944C008F00AF00910093009500970022
S113006099009B009D009F00A100A300A500A7008C
S1130070A900AB0011241FBECFE5D8E0DEBFCDBF81
S113008020E0A0E6B0E001C01D92A336B207E1F77C
S11300900E94B1000C9409010C9400001F920F926D
S11300A00FB60F9211242F933F935F936F937F9317
S11300B08F939F93AF93BF938091600090E00196DC
S11300C064E670E00E94DB00809360009DEC899FF1
S11300D0912D1124969596959695392F330F232FAC
S11300E0220F220F230F821B8093620090936100E2
S11300F0BF91AF919F918F917F916F915F913F914C
S11301002F910F900FBE0F901F90189590E08031A3
S1130110910518F5FC01E65DFF4F0C94EF008FE3A9
S113012008958BE508958FE4089586E608958DE695
S113013008958DE7089587E008958FE708958FE681
S1130140089587E708958CE7089589E308958EE577
S1130150089589E7089581E7089580E0089586E089
S1130160089578948FEF87BB83E081BB8EB58A6056
S11301708EBD89B7806189BF83E294EF9BBD8ABD40
S1130180809162000E94860088BB81E082BB8FEC74
S113019097E00197F1F700C00000809161000E9490
S11301A0860088BB82E082BB8FEC97E00197F1F771
S11301B000C00000E5CF97FB072E16F4009407D08B
S11301C077FD09D00E94F50007FC05D03EF4909518
S11301D081959F4F0895709561957F4F0895EE0F17
S11301E0FF1F0590F491E02D0994AA1BBB1B51E15C
S11301F007C0AA1FBB1FA617B70710F0A61BB70B93
S1130200881F991F5A95A9F780959095BC01CD0137
S10902100895F894FFCFED
S9030000FC
